:10172C004E313A3230323130303430323136004E84
:10173C00323A3230323033313030313432004D4F76
:10174C0044453A53657474696E672054696D65003D
:10175C004D4F44453A005265636F7264003A000A7B
:10176C000ACEC2B6C8CAB1BCE4BBD8CFD420533160
:10177C0031B4A5B7A20A00B5DA25322E3066B4CE44
:10178C00CAB1BCE4CEC2B6C8BCC7C2BC0A00CEC289
:10179C00B6C8A3BA25322E34665E43202000CAB1E7
:1017AC00BCE4A3BA25322E30663A25322E30663A86
:0917BC0025322E30660A0A0A00EB
:0C18C6004100C7004100C5004100C60001
:1007AC0012000E121D05121CF0121CAA1214381283
:1007BC0000167BFF7A17792C7D017F01121B627B5F
:1007CC00FF7A17793B7D017F02121B621211359063
:1007DC0000C8EFF07E00640F70069000C7E004F0D4
:1007EC009000C7E075F00384E5F07059EF64104E8B
:1007FC00700B9000C5E004F0E49000C8F09000C5C8
:10080C00E05401701D121D057BFF7A17792C7D01B8
:10081C007F01121B627BFF7A17793B7D017F0212ED
:10082C001B629000C5E0540164017012121D051288
:10083C001A9C1200161215301216911215EB7FF439
:10084C007E01121CDB9000C7E075F00384E5F064B8
:10085C0001600302097E9000C8F0121D057BFF7A2F
:10086C0017794A7D017F01121B621215EB121135AB
:10087C009000C8EFF06401700B9000A9E004F0E464
:10088C009000C8F09000C8E06405700B9000A9E0DF
:10089C0014F0E49000C8F09000C8E06402700B9073
:1008AC0000AAE004F0E49000C8F09000C8E06406F0
:1008BC00700B9000AAE014F0E49000C8F09000C80F
:1008CC00E06403700B9000ABE004F0E49000C8F01F
:1008DC009000C8E06407700B9000ABE014F0E4905B
:1008EC0000C8F09000C8E06404700B9000ACE00409
:1008FC00F0E49000C8F09000C8E06408700B900021
:10090C00ACE014F0E49000C8F09000C8E06409700A
:10091C000B9000ADE004F0E49000C8F09000C8E04B
:10092C00640D700B9000ADE014F0E49000C8F090F2
:10093C0000C8E0640A700B9000AEE004F0E4900094
:10094C00C8F09000C8E0640E700B9000AEE014F09C
:10095C00E49000C8F01214381215EB9000C8E0FFB8
:10096C00640F6008EF641060030208799000C7E020
:10097C0004F09000C7E075F00384E5F064026003B6
:10098C000207D89000C8F0121D057BFF7A17795C1E
:10099C007D017F01121B627BFF7A1779627D087FD4
:1009AC0001121B629000C6E075F00A84E5F0240188
:1009BC00FBE433FA9000347402F07D067F01121CC4
:1009CC004B9000C6E075F00A84E5F075F003A424A2
:1009DC0063F582E43400F583E0FB7A009000347414
:1009EC0002F07D01FF121C4B7BFF7A1779697D03A6
:1009FC007F02121B629000C6E075F00A84E5F07568
:100A0C00F003A42464F582E43400F583E0FB7A005F
:100A1C009000347402F07D04FF121C4B7BFF7A179C
:100A2C0079697D067F02121B629000C6E075F00AA0
:100A3C0084E5F075F003A42465F582E43400F583B5
:100A4C00E0FB7A009000347402F07D07FF121C4B1F
:100A5C001211359000C8EFF06408700B9000C6E0DE
:100A6C0004F0E49000C8F09000C8E0640C700B90A7
:100A7C0000C6E014F0E49000C8F09000C6E075F0F9
:100A8C000A84E5F02401FBE433FA9000347402F09C
:100A9C007D067F01121C4B9000C6E075F00A84E5C0
:100AAC00F075F003A42463F582E43400F583E0FBD5
:100ABC007A009000347402F07D01FF121C4B7BFF16
:100ACC007A1779697D037F02121B629000C6E0756C
:100ADC00F00A84E5F075F003A42464F582E4340094
:100AEC00F583E0FB7A009000347402F07D04FF1271
:100AFC001C4B7BFF7A1779697D067F02121B629073
:100B0C0000C6E075F00A84E5F075F003A42465F5E1
:100B1C0082E43400F583E0FB7A009000347402F038
:100B2C007D07FF121C4B7B2B7D0B7F02121D4F9000
:100B3C0000C6E075F00A84E5F025E025E02481F597
:100B4C0082E43400F583E0FCA3E0FDA3E0FEA3E027
:100B5C00FF12038CAB07AA069000347402F07D0CD4
:100B6C00FF121C4B7B2E7D0E7F02121D4F9000C678
:100B7C00E075F00A84E5F025E025E02481F582E4B7
:100B8C003400F583E0FCA3E0FDA3E0FEA3E0FF7BD3
:100B9C00007A40791C784612011E12038CE47B10FB
:100BAC007A27F9F81206BA9000347402F07D0FFF20
:100BBC00121C4B9000C8E0640B6003020C9D7BFF81
:100BCC007A17796B120D1D9000C6E075F00A84AC93
:100BDC00F0E4120358E4FBFA7980783F12002D9070
:100BEC00003312075A7BFF7A177983120D1D7BFF96
:100BFC007A17799A9000C6E075F00A84E5F025E042
:100C0C0025E02481F582E43400F583E0FCA3E0FDCB
:100C1C00A3E0FEA3E0FF90003312075A120D1D90C3
:100C2C0000C6E075F00A84E5F075F003A42463F5C2
:100C3C0082E43400F583E0FCE41203589000331294
:100C4C00075A9000C6E075F00A84E5F075F003A42D
:100C5C002464F582E43400F583E0FCE4120358903C
:100C6C00003712075A9000C6E075F00A84E5F0755B
:100C7C00F003A42465F582E43400F583E0FCE4126F
:100C8C00035890003B12075A7BFF7A1779AA120D72
:100C9C001D9000C8E0640F6003020A5CF09000C76E
:060CAC00E004F00207D88D
:101CDB00EF1FAC0670011E4C600A7D027CEFDCFE30
:041CEB00DDFC80ECB0
:011CEF0022D2
:061D5900543A005E430055
:0D001600121C907FCC121C6E7F44021C6EE9
:101A9C00121C907FCC121C6E7FBE121C6E121BDFB0
:101AAC00900030EFF0121BDFEFFE900030E0FDED08
:101ABC00FFAC06EC120353E4FBFA79807841120276
:101ACC00279000C112075A9000C1E0FCA3E0FDA3CF
:051ADC00E0FEA3E0FFA5
:011AE10022E2
:101530007BFF7A1D79597D017F01121B62E4FFFE5A
:10154000FDFC9000C1E0F8A3E0F9A3E0FAA3E0FB02
:101550001202C450227B2D7D037F01121D4F90008B
:10156000C1E0FCA3E0FDA3E0FEA3E0FF12033D9079
:1015700000C112075A80097B2B7D037F01121D4F8A
:101580009000C1E0FCA3E0FDA3E0FEA3E0FF120396
:101590008CAB07AA069000347403F07D047F01121F
:1015A0001C4B7B2E7D077F01121D4F7F007E407DEF
:1015B0001C7C469000C1E0F8A3E0F9A3E0FAA3E0A8
:1015C000FB12011E12038CE47B107A27F9F8120635
:1015D000BA9000347404F07D087F01121C4B7BFF2D
:0B15E0007A1D795C7D0C7F01021B620C
:041D5F002C003A001A
:0A18D2004700A916060100000006F9
:05000E00C2B5C2B622DC
:0618510025F0FDEC3EFC59
:0A185700900030ECF0A3EDF0AB07B9
:10186100D2B5E4FDEDC394087480948050227E00CB
:101871007401A805088005C333CE33CED8F9FFEB38
:10188100F582EF558224FF92B4D2B6C2B60D80D450
:10189100E4FDEDC394087480948050267E007401A9
:1018A100A805088005C333CE33CED8F9FF900030A8
:1018B100E05EFEA3E05F4E24FF92B4D2B6C2B60D45
:0418C10080D0C2B55C
:0118C5002200
:02193700AD07FA
:10193900E4F9ED4401FDD2B5E4FBEBC394087480EE
:10194900948050227E007401A803088005C333CE19
:1019590033CED8F9FFEDF582EF558224FF92B4C258
:10196900B6D2B60B80D4E4FBEBC3940874809480A0
:101979005017D2B6C2B630B40DA80374010880025C
:0F198900C333D8FC49F90B80DFC2B5C2B4AF013C
:01199800222C
:10143800E4FDFC7F8E1218579000A9E0FD75F00AB4
:101448008475F010A4FFAEF0ED75F00A84EF7F8C80
:101458001218519000AAE0FD75F00A8475F010A4E6
:10146800FFAEF0ED75F00A847C00EF7F881218510A
:101478009000ABE0FD75F00A8475F010A4FFAEF0A3
:10148800ED75F00A847C00EF25F0FDEC3EFC7F86CC
:101498001218579000ACE0FD75F00A8475F010A49E
:1014A800FFAEF0ED75F00A847C00EF25F0FDEC3E10
:1014B800FC7F841218579000ADE0FD75F00A847522
:1014C800F010A4FFAEF0ED75F00A847C00EF25F073
:1014D800FDEC3EFC7F821218579000AEE0FD75F0DF
:1014E8000A8475F010A4FFAEF0ED75F00A847C0054
:1014F800EF25F0FDEC3EFC7F801218579000AFE01E
:10150800FD75F00A8475F010A4FFAEF0ED75F00AD1
:10151800847C00EF25F0FDEC3EFC7F8A1218577D95
:08152800807C007F8E02185741
:101691007F8C121937EFC4540F75F00AA4FEEF5472
:1016A1000F2E9000A9F07F88121937EFC4540F75DF
:1016B100F00AA4FEEF540F2E9000AAF07F861219B3
:1016C10037EFC4540F75F00AA4FEEF540F2E9000AB
:1016D100ABF07F84121937EFC4540F75F00AA4FEE2
:1016E100EF540F2E9000ACF07F82121937EFC454E3
:1016F1000F75F00AA4FEEF540F2E9000ADF07F801D
:10170100121937EFC4540F75F00AA4FEEF540F2ECF
:101711009000AEF07F8A121937EFC4540F75F00AAA
:0A172100A4FEEF540F2E9000AFF06D
:01172B00229B
:1015EB009000A9E0FB7A009000347402F07D01FFBB
:1015FB00121C4B7BFF7A1D795F7D037F02121B62EE
:10160B009000AAE0FB7A009000347402F07D04FF96
:10161B00121C4B7BFF7A1D795F7D067F02121B62CA
:10162B009000ABE0FB7A009000347402F07D07FF72
:10163B00121C4B9000ACE0FB7A009000347402F06B
:10164B007D09FF121C4B7BFF7A1D79617D0B7F029D
:10165B00121B629000ADE0FB7A009000347402F034
:10166B007D0CFF121C4B7BFF7A1D79617D0E7F0277
:10167B00121B629000AEE0FB7A009000347402F013
:06168B007D0FFF021C4B65
:07000300D28AD2AAD2AF227B
:03001300021B23AA
:101B2300C0E0C0F0C083C082C0D075D000C000C088
:101B330001C002C003C004C005C006C0077F147EF5
:101B430000121CDBD007D006D005D004D003D0028E
:0F1B5300D001D000D0D0D082D083D0F0D0E032FB
:061D2B00C2A58F80D2A7C3
:081D31007F027EEFDEFEDFFC05
:011D39002287
:0A1D4500C2A6121D2BC2A7021D3119
:101C0500E0FCA3E0FDCFCDCFCECCCE1206297C00E3
:091C15007D0A120629ED2430FFBE
:0A1C1E00D2A6121D2BC2A7021D3131
:051C2800EAF0A3EBF05F
:101C2D00AE07EEFB7A0064017004ED148009EB64DD
:0E1C3D00024A7009ED243F4480FF121D45222B
:101D05007F38121D457F0C121D457F06121D457F2C
:041D150001021D4565
:0A1D4F00AC03121C2DAF04021C1E91
:0B1B6200900030EBF0A3EAF0A3E9F0E4
:101B6D00121C2DE4FD900030E0FBA3E0FAA3E0F998
:101B7D008D827583001205D8FF6006121C1E0D8024
:011B8D00E473
:011B8E002234
:0A199900EF24FFFDEE34FFFC7F0A8F
:0E19A300900035EEF0A3EFF0A3ECF0A3EDF012
:1019B100A3E4F0A304F0E4FBEBFFD3900038E09F35
:1019C1007480F8900037E0648098401E900039E000
:1019D100FEA3E0FF900035E0FCA3E0FD12061790A6
:1019E1000039EEF0A3EFF00B80CE900039E0FEA3BA
:0219F100E0FF15
:0119F30022D1
:031C4B00900032D4
:101C4E00121C28A3E0FAEAFF7E00D394007480945D
:0F1C5E0080400C121999900032121C051A80E771
:011C6D002254
:0319F4009000B2AE
:1019F700121C28C39000B2E064809480400F7F2BB4
:101A0700121C1EE0FFA3E09000B5CF80167F2D12B9
:101A17001C1E9000B2E0FEA3E0FFC3E49FFFE49E1C
:101A27009000B5F0A3EFF09000B4E0FAEAFF7E0073
:101A3700D3940074809480400C1219999000B512C9
:051A47001C051A80E7F8
:011A4C002277
:031A4D009000B94D
:101A5000121C28A3E0FAEAD3940074809480403BDF
:101A6000EA24FFFDE434FFFC7F107E001219A390EE
:101A700000B9E0FCA3E0FDCFCDCFCECCCE1206293D
:101A8000EF540FFEC3940A74809480EE5004243007
:0B1A900080022437FF121C1E1A80BBCE
:011A9B002228
:031AE2009000BEB3
:101AE500121C28A3E0FAEAFF7E00D39400748094C8
:101AF50080402AEF24FFFDEE34FFFC7F021219A37C
:101B05009000BEE0FCA3E0FDCFCDCFCECCCE12063B
:0D1B150029EF54012430FF121C1E1A80C954
:011B220022A0
:0418DC004100C800FF
:10113500E4900030F07590FFC2932097167F14FE5F
:10114500121CDB3097FD7F147E00121CDB900030F3
:101155007401F02096177F147E00121CDB3096FD7B
:101165007F147E00121CDB9000307405F02095176B
:101175007F147E00121CDB3095FD7F147E00121C4F
:10118500DB9000307409F02094177F147E00121C48
:10119500DB3094FD7F147E00121CDB900030740D53
:1011A500F07590FFC2922097177F147E00121CDB0A
:1011B5003097FD7F147E00121CDB9000307402F026
:1011C5002096177F147E00121CDB3096FD7F147E5F
:1011D50000121CDB9000307406F02095177F147EFA
:1011E50000121CDB3095FD7F147E00121CDB900085
:1011F50030740AF02094177F147E00121CDB3094A3
:10120500FD7F147E00121CDB900030740EF075908B
:10121500FFC2912097177F147E00121CDB3097FDCB
:101225007F147E00121CDB9000307403F0209617AB
:101235007F147E00121CDB3096FD7F147E00121C8D
:10124500DB9000307407F02095177F147E00121C88
:10125500DB3095FD7F147E00121CDB900030740B93
:10126500F02094177F147E00121CDB3094FD7F1450
:101275007E00121CDB900030740FF07590FFC29059
:101285002097177F147E00121CDB3097FD7F147E9C
:1012950000121CDB9000307404F02096177F147E3A
:1012A50000121CDB3096FD7F147E00121CDB9000C3
:1012B500307408F02095177F147E00121CDB3095E2
:1012C500FD7F147E00121CDB900030740CF020941E
:1012D500177F147E00121CDB3094FD7F147E0012F4
:0D12E5001CDB9000307410F0900030E0FF32
:0112F20022D9
:101C9000D2A3C2A37FF7DFFED2A37F20DFFEA2A3E1
:091CA000E433FE7FF7DFFEAF061E
:011CA9002218
:101D1900C2A37E04DEFEEF24FF92A37E18DEFED26C
:011D2900A316
:011D2A002296
:101CC300C2A37F02DFFED2A37F02DFFEA2A3E4331F
:071CD300FE7F18DFFEAF06E3
:011CDA0022E7
:021C6E00AD07C0
:101C7000E4FCECC39408748094805013A8047401AD
:0F1C8000088002C333D8FC5DFF121D190C80E3EE
:011C8F002232
:101BDF00E4FDFCECC39408748094805016121CC36F
:101BEF00EF600DA8047401088002C333D8FC4DFDCB
:051BFF000C80E0AF05C1
:011C040022BD
:101B8F00CEC2B6C8A3BA25322E34665E43202000DB
:101B9F00CAB1BCE4A3BA25322E30663A25322E30B4
:091BAF00663A25322E30660A0068
:1018E0004200600000410062005E006300000000F2
:1018F00000000000000000000000000000000000E8
:1019000000000000000000000000602800810000CE
:1019100000000000000000000000000000000000C7
:1019200000000000000000000000000000000000B7
:06193000000000000000B1
:101CF0005389F0438901758AB0758C3CD2A9D2AF63
:051D0000C28DD28C220F
:03000B000212F3EB
:1012F300C0E0C0F0C083C082C0D075D000C000C0C1
:1013030001C002C003C004C005C006C007758AB08F
:10131300758C3C900061E004F07006900060E0047E
:10132300F0900060E0FEA3E0FF7C007DC812062978
:10133300ED4C705C121691121A9C1200167BFF7A08
:101343001B798F9000C1E0FCA3E0FDA3E0FEA3E0C6
:10135300FF90003312075A120D1D9000ACE0FCE41D
:1013630012035890003312075A9000ADE0FCE412C8
:10137300035890003712075A9000AEE0FCE41203C2
:101383005890003B12075A7BFF7A1B799F120D1D61
:10139300900060E0FEA3E0FF7C017D90120629ED42
:1013A3004C7077900060F0A3F09000ACE0FF9000E9
:1013B30062E0FE75F003A42463F582E43400F58350
:1013C300EFF09000ADE0FFEE75F003A42464F58226
:1013D300E43400F583EFF09000AEE0FFEE75F00328
:1013E300A42465F582E43400F583EFF09000C1E0B6
:1013F300FCA3E0FDA3E0FEA3E0FF900062E025E094
:1014030025E02481F582E43400F58312075A900025
:1014130062E004F0E0640A7001F0D007D006D00562
:10142300D004D003D002D001D000D0D0D082D0835A
:05143300D0F0D0E03212
:101CAA0053877F75985053890F438920758BFD752B
:091CBA008DFDC2ABD28ED299223D
:03002300021D3A81
:0B1D3A00309802C298309902C2993222
:100026000203F8E86480F8E933E83360110460F00D
:10003600ED33EC337009E8FCE9FDEAFEEBFF220440
:1000460060DED3EB9FEA9EE99DE8C2E78CF0C2F73B
:1000560095F0400CE8CCF8E9CDF9EACEFAEBCFFB07
:100066001203C385D0F05804700320D5B3E804709A
:10007600075002B2D502040292D5EC0460F7E4CC34
:10008600C0E0C398F8603B94186008400DD0E0FBD0
:100096000203DAE4FBFAC9FC8028E830E406E4C986
:1000A600FBE4CAFCE830E305E4C9CACBFCE8540724
:1000B6006010F8C3E913F9EA13FAEB13FBEC13FC2F
:1000C600D8F130F52FC3E49CFCEF9BFFEE9AFEEDD2
:1000D60099FDD0E0FBEF4E4D4C701222DB0302037C
:1000E600FFEC2CFCEF33FFEE33FEED33FDED30E796
:1000F600EB0203DAEF2BFFEE3AFEED39FDD0E0FB23
:1001060050130BBB0003020402ED13FDEE13FEEFCA
:0801160013FFEC13FC0203DAF5
:10011E00EC4D6011E8497017ED33EC3304600DE4DB
:10012E00FCFFFEFD22E933E8330470F80203F812F7
:10013E0003C358046009E4CC2481500628500902F8
:10014E0004022840030203FFC0E0EB4A7044B9806A
:10015E0006D0E0FB0203EEEF4E701CBD8008EBFFF5
:10016E00EAFEE9FD80EBE98DF0A4FEE5F002020760
:10017E00E9CDF9EAFEEBFFEF89F0A4FCE5F0CE89BC
:10018E00F0A42EFFE435F0CD89F0A42DFEE435F079
:10019E008067EF4E7005BD80D780C3EF8BF0A4ACA7
:1001AE00F0EE8BF0A42CFCE435F0F8EF8AF0A42CE2
:1001BE00E5F038FCE433CB8DF0A42CFCE5F03BF8F5
:1001CE00EE8AF0A42CFCE5F038F8E433CF89F0A4E5
:1001DE002CFCE5F038CF3400CE89F0A42FFFE5F0EB
:1001EE003EFEE433C98DF0A42EFEE5F039CD8AF043
:1001FE00A42FFFE5F03EFEE43DFD33D0E0FB5007BB
:10020E000BBB000F020402EC2CFCEF33FFEE33FEAF
:06021E00ED33FD0203DADE
:10022400020402EC5D046005E8590470030203F85B
:100234001203C3580460F6EC4860F2EC7004FDFE4F
:10024400FF22C860DB2481C85009C39860025006AD
:100254000203FF9850CAF582E9294B4A7005AB8224
:100264000203EE75F0007C1A7880C3EF9BEE9AEDE2
:1002740099400DC3EF9BFFEE9AFEED99FDE842F025
:10028400DC23ACF0D0E0FFD0E0FED0E0FDAB822078
:10029400E7101BEB60BAEC2CFCEF33FFEE33FEED02
:1002A40033FD0203DAE803F830E705C0F075F00027
:1002B400EF2FFFEE33FEED33FD40B830E7C280AAE6
:1002C40074F8CC6480CCC86480C8F58204604FC3E1
:1002D400EB9FF5F0EA9E42F0E99D42F0E89C45F080
:1002E400603C501DE5825FFFE582D313CB5BCBF40A
:1002F4002B5582FB50280ABA002409B90020088033
:100304001DE5825BFBE582D313CF5FCFF4C3132FCC
:100314005582FF50090EBE00050DBD00010CC3EB54
:100324009FF5F0EA9E42F0E99D42F0E89C45F060BA
:0903340007CC4820E701B3EC22DC
:10033D00ED33EC33600A047003BD8004ECB2E7FCCE
:01034D00228D
:10034E0075F020800E75F010800575F0087D007E2A
:10035E00007F003392D530D50312074CEC3340109A
:10036E00EF33FFEE33FEED33FDEC33FCD5F0ED2233
:0E037E00E5F0247EA2D513CC92E7CDCEFF226F
:10038C00EDD2E7CD33EC3392D524814006E4FFFE69
:10039C00FDFC22FCE4CFCECDCC24E0501174FF80C8
:1003AC00EDC3CC13CCCD13CDCE13CECF13CF047065
:0703BC00F030D5DE02074C12
:100CB200E50D2433F582E43400F583E0050D22903E
:100CC2000030301003900033E475F0011207660221
:100CD20005BF2009E97F2ED2098018EF540F249016
:100CE200D43440D4FF300D0BEF24BFB41A005003AC
:100CF2002461FFE50E6002150E0511E51170020573
:100D02001030100E900030E475F001120766EF0209
:100D12000605021BB87403D2108003E4C210F50D5D
:100D220090003012077DE4F50EF510F511E50E6026
:100D3200077F20120CF580F5750FFFC20AC209C2A7
:100D42000BC20CC20EC20FC211120CC1FF700D30C9
:100D520010057F00120D06AF11AE1022B4255FC23E
:100D6200D5C20D120CC1FF24D0B40A00501A75F07E
:100D72000A780E30D50508B6FF0106C6A426F6206D
:100D8200D5047002D20C80D924CFB41A00EF5004DB
:100D9200C2E5D20D020FF8D20A80C6D20980C0D2B3
:100DA2000B80BCD2D580BAD20E80B47F20120CF553
:100DB200200B077401B50E0040F1120CB2FF120CA9
:100DC200F5020D2FD211D20F8095120CB2FB120C2C
:100DD200B2FA120CB2F94A4B700679F67A107BFF1E
:100DE200200B2EE50E602A7E008E8275830012058E
:100DF200D860060EEE650F70F0C2D5EBC0E0EAC017
:100E0200E0E9C0E0EE121059D0E0F9D0E0FAD0E00B
:100E1200FB1205BFFF60AAEBC0E0EAC0E0E9C0E058
:100E2200120CF5D0E02401F9D0E03400FAD0E0FB56
:100E3200E50F0460DCD50FD98087D20B80A2121097
:100E42003B60F7E50F70010412040DA90F600DE578
:100E52000F600914F50F1210E3EF60F3EA30E702B6
:100E6200F404C3995079EAF4250F0430E701E4044D
:100E7200F50F800D12103B60C1EA050F250F120419
:100E82000DEA90005FF030E701E4250F04D50F046E
:100E9200200E0114121059E4C0E01210E390005F1A
:100EA200E0601320E70714F0120CDD802204F0D07A
:100EB200E014C0E07F00120CDDE50F6007120CD4D5
:100EC200150F800B300E03120CD4D0E0020D2FD080
:100ED200E00480C412103B609EE50F0412040D90E2
:100EE200005FEAF0E50F200E0260010424041210F4
:010EF20059A6
:100EF30074FF04C0E01210E3120CDDE50F200E02B4
:100F03006003120CD4D0E0B50FE87F45120CE790D4
:100F1300005FE07F2B30E7047F2DF404C0E0120C68
:100F2300F5D0E075F00A84C0F0120CDED0E0120CAC
:100F3300DE020D2F791080027908C20FC2118008DA
:100F4300D2D5790A8004790AC2D5E50F047002F577
:100F53000FE4FAFDFEFF120CB2FC7B08200A131209
:100F63000CB2FD7B1030090A120CB2FE120CB2FF58
:100F73007B20EC3382D592D55013C3E43009069F0E
:100F8300FFE49EFEE4200A039DFDE49CFCE4CBF811
:100F9300C20AEC700CCFCECDCCE824F8F870F38005
:100FA30017C3EF33FFEE33FEED33FDEC33FCEB33CE
:100FB300FB994002FB0FD8E9EB300A05F8D0E0C4F7
:100FC30048B20AC0E00AEC4D4E4F78207B0070C255
:100FD300EAB50F0040BCC0E012105BD0F0D0E020B7
:100FE3000A04C4C0E0C4B20AC0F0120CDED0F0D5CB
:100FF300F0EB020D2F1207860DCC530F37580D9DC2
:101003004C0D99420F3B4F0F43440F43490DB243DD
:101013000F49550E76460ED6450E40471116500D14
:10102300A12D0DA52E0DC82B0DA9230DC62010FF34
:101033002A0D614800000DC0E50FB4FF03750F06CC
:10104300120CB2FC120CB2FD120CB2FE120CB2FF67
:1010530090005802044A790AA2D5200C14300E09D4
:10106300B910020404B9080104A2D5200F025001EB
:1010730004200B68920BB50E005034C0E07F203083
:101083000C197F30A20B720F720E500F1210B2C2E6
:101093000BC20FC20EC2117F30800F300E03E9C0A6
:1010A300E0120CF5300E03D0E0F9D0E0B50ECC30F1
:1010B3000E177F30B9100C120CF57F58300D077FD7
:1010C300788003B90803120CF5300B057F2D020C51
:1010D300F57F202011F87F2B200FF322920B80CF76
:1010E3007F00B40700500B2458F582E43400F583E5
:1010F300E0FF22286E756C6C2900D20A120CB23004
:101103000AF8C20A780E30D50108F6020D612D5097
:10111300434958120CB22403B405004001E4901172
:101123001193120CE6743A120CE6D20C750E0402FB
:021133000F3774
:1003C300E9D2E7C933E833F892D5EDD2E7CD33EC80
:0703D30033FC5002B2D522F9
:1003DA00EC30E7100FBF000C0EBE00080DBD000484
:1003EA000BEB6014A2D5EB13FCED92E7FD2274FF30
:1003FA00FCFDFEFF22E480F8A2D574FF13FC7D8089
:03040A00E480EF9C
:10040D00F920E73624F950037907E4F42402FBE5DB
:10041D0082158270021583DBF6E024FB501BE96028
:10042D0014E4F0E582158270021583E004F0B40A3D
:0D043D0008E4F0D9EE7401F00A22C2D522C5
:10044A00ED33EC3392D5FA602AB4FF33EDC2E77B81
:10045A00FF60067A04796FE4227A04797820D50459
:10046A007A047973224E614E002B494E46002D497B
:10047A004E4600E47A08F0A3DAFC7B00740722C037
:10048A0083C082ECC0E0EDC0E0EEC0E0EFC0E0EA7D
:10049A0075F010A4CAABF075F04DA42BFBE435F04F
:1004AA00FCEA2410FAEB34C5FBEC34D9FCEDC2E7C4
:1004BA00FF75F056A4F42411C5F0F434C58FF0A4E6
:1004CA002AE5F03BE43CF020E71412057FD0E0FF78
:1004DA00D0E0FED0E0FDD0E0FC1202278014F40444
:1004EA0012057FD0E0FFD0E0FED0E0FDD0E0FC12A4
:1004FA00011ED082D083E0FAEDD2E7CD33EC33246B
:10050A0082FBE4C3CF33CFCE33CECD33CD33DBF34F
:10051A007B0775F00A846004F0A31B0AE5F0F0A3D8
:10052A008FF0740AA4FFACF08EF0740AA42CFEAC0F
:10053A00F050010C8DF0740AA42CFDE435F0F0A300
:05054A00DBDE74072256
:10054F003F8000004120000042C80000447A0000B4
:10055F00461C400047C35000497424004B18968036
:10056F004CBEBC205A0E1BCA6753C21C749DC5AE2D
:10057F00FB60065407601C23231205ADEB54386053
:10058F00091205991205A812011EECF8EDF9EEFA01
:10059F00EFCB22EB1205A880F1543803241C9005F1
:1005AF004FFE93FC0EEE93FD0EEE930ECE93FF22B5
:030000000217C51F
:0C17C500787FE4F6D8FD75812202180C34
:1005BF00BB010689828A83E0225002E722BBFE023A
:0905CF00E32289828A83E493226D
:1005D800BB010CE58229F582E5833AF583E02250D8
:1005E80006E92582F8E622BBFE06E92582F8E22222
:0D05F800E58229F582E5833AF583E493223C
:10060500BB010689828A83F0225002F722BBFE01D4
:02061500F322CE
:10061700EF8DF0A4A8F0CF8CF0A428CE8DF0A42EF7
:02062700FE22B1
:10062900BC000BBE0029EF8DF084FFADF022E4CCB5
:10063900F875F008EF2FFFEE33FEEC33FCEE9DEC7E
:10064900984005FCEE9DFE0FD5F0E9E4CEFD22EDC4
:10065900F8F5F0EE8420D21CFEADF075F008EF2F0E
:10066900FFED33FD4007985006D5F0F222C398FDFF
:050679000FD5F0EA229C
:10067E0075F008758200EF2FFFEE33FECD33CDCC33
:10068E0033CCC58233C5829BED9AEC99E5829840B6
:10069E000CF582EE9BFEED9AFDEC99FC0FD5F0D693
:1006AE00E4CEFBE4CDFAE4CCF9A88222B800C1B9BD
:1006BE000059BA002DEC8BF084CFCECDFCE5F0CBFB
:1006CE00F97818EF2FFFEE33FEED33FDEC33FCEB34
:1006DE0033FB10D703994004EB99FB0FD8E5E4F9EF
:1006EE00FA227818EF2FFFEE33FEED33FDEC33FCDC
:1006FE00C933C910D7059BE99A4007EC9BFCE99AD0
:10070E00F90FD8E0E4C9FAE4CCFB2275F010EF2F14
:10071E00FFEE33FEED33FDCC33CCC833C810D70714
:10072E009BEC9AE899400AED9BFDEC9AFCE899F84F
:0E073E000FD5F0DAE4CDFBE4CCFAE4C8F922E2
:0E074C00C3E49FFFE49EFEE49DFDE49CFC22BE
:0C075A00ECF0A3EDF0A3EEF0A3EFF02212
:10076600F8E0FBA3A3E0F925F0F0E582158270021C
:070776001583E0FA38F022C0
:09077D00EBF0A3EAF0A3E9F0227D
:10078600D083D082F8E4937012740193700DA3A302
:1007960093F8740193F5828883E473740293686016
:0607A600EFA3A3A380DF16
:101BB800EFB40A07740D121BC3740A309811A89960
:101BC800B8130CC2983098FDA899C298B811F6308D
:071BD80099FDC299F5992265
:1017D1000207ACE493A3F8E493A34003F68001F27B
:1017E10008DFF48029E493A3F85407240CC8C33319
:1017F100C4540F4420C8834004F456800146F6DFE8
:10180100E4800B01020408102040809018C6E47E99
:10181100019360BCA3FF543F30E509541FFEE493DC
:10182100A360010ECF54C025E060A840B8E493A3A3
:10183100FAE493A3F8E493A3C8C582C8CAC583CACE
:10184100F0A3C8C582C8CAC583CADFE9DEE780BE86
:0119360000B0
:00000001FF
