:101C6000EF1FAC0670011E4C600A7D027CEFDCFEAB
:041C7000DDFC80EC2B
:011C7400224D
:061CDB00543A005E4300D4
:0D001600121BFB7FCC121C157F44021C1531
:1019C200121BFB7FCC121C157FBE121C15121BA40E
:1019D200900030EFF0121BA4EFFE900030E0FDED1E
:1019E200FFAC06EC120353E4FBFA79807841120251
:1019F200279000C112075A9000C1E0FCA3E0FDA3AA
:051A0200E0FEA3E0FF7F
:011A070022BC
:10151C007BFF7A1C79DB7D017F01121B04E4FFFE4B
:10152C00FDFC9000C1E0F8A3E0F9A3E0FAA3E0FB16
:10153C001202C450227B2D7D037F01120003900008
:10154C00C1E0FCA3E0FDA3E0FEA3E0FF12033D908D
:10155C0000C112075A80097B2B7D037F0112000307
:10156C009000C1E0FCA3E0FDA3E0FEA3E0FF1203AA
:10157C008CAB07AA069000347403F07D047F011233
:10158C001BDF7B2E7D077F011200037F007E407DD9
:10159C001C7C469000C1E0F8A3E0F9A3E0FAA3E0BC
:1015AC00FB12011E12038CE47B107A27F9F8120649
:1015BC00BA9000347404F07D087F01121BDF7BFFAE
:0B15CC007A1C79DE7D0C7F01021B04FD
:041CE1002C003A0099
:0A183D004700A9160601000000068E
:05000E00C2B5C2B622DC
:0618AE0025F0FDEC3EFCFC
:0A18B400900030ECF0A3EDF0AB075C
:1018BE00D2B5E4FD74017E00A805088005C333CEC1
:1018CE0033CED8F9FFEBF582EF558224FF92B4D2D6
:1018DE00B6C2B60DEDB408DCE4FD74017E00A805B9
:1018EE00088005C333CE33CED8F9FF900030E05ECA
:1018FE00FEA3E05F4E24FF92B4D2B6C2B60DEDB495
:04190E0008D8C2B57E
:0119120022B2
:02197000AD07C1
:10197200E4F9ED4401FDD2B5E4FB74017E00A80355
:10198200088005C333CE33CED8F9FFEDF582EF558B
:101992008224FF92B4C2B6D2B60BEBB408DCE4FBED
:1019A200D2B6C2B630B40D7401A803088002C333A4
:0F19B200D8FC49F90BEBB408E7C2B5C2B4AF01DA
:0119C1002203
:10142400E4FDFC7F8E1218B49000A9E0FD75F00A6B
:101434008475F010A4FFAEF0ED75F00A84EF7F8C94
:101444001218AE9000AAE0FD75F00A8475F010A49D
:10145400FFAEF0ED75F00A847C00EF7F881218AEC1
:101464009000ABE0FD75F00A8475F010A4FFAEF0B7
:10147400ED75F00A847C00EF25F0FDEC3EFC7F86E0
:101484001218B49000ACE0FD75F00A8475F010A455
:10149400FFAEF0ED75F00A847C00EF25F0FDEC3E24
:1014A400FC7F841218B49000ADE0FD75F00A8475D9
:1014B400F010A4FFAEF0ED75F00A847C00EF25F087
:1014C400FDEC3EFC7F821218B49000AEE0FD75F096
:1014D4000A8475F010A4FFAEF0ED75F00A847C0068
:1014E400EF25F0FDEC3EFC7F801218B49000AFE0D5
:1014F400FD75F00A8475F010A4FFAEF0ED75F00AE6
:10150400847C00EF25F0FDEC3EFC7F8A1218B47D4C
:08151400807C007F8E0218B4F8
:10167D007F8C121970EFC4540F75F00AA4FEEF544D
:10168D000F2E9000A9F07F88121970EFC4540F75BA
:10169D00F00AA4FEEF540F2E9000AAF07F861219C7
:1016AD0070EFC4540F75F00AA4FEEF540F2E900086
:1016BD00ABF07F84121970EFC4540F75F00AA4FEBD
:1016CD00EF540F2E9000ACF07F82121970EFC454BE
:1016DD000F75F00AA4FEEF540F2E9000ADF07F8031
:1016ED00121970EFC4540F75F00AA4FEEF540F2EAB
:1016FD009000AEF07F8A121970EFC4540F75F00A86
:0A170D00A4FEEF540F2E9000AFF081
:0117170022AF
:1015D7009000A9E0FB7A009000347402F07D01FFCF
:1015E700121BDF7BFF7A1C79E17D037F02121B044C
:1015F7009000AAE0FB7A009000347402F07D04FFAB
:10160700121BDF7BFF7A1C79E17D067F02121B0428
:101617009000ABE0FB7A009000347402F07D07FF86
:10162700121BDF9000ACE0FB7A009000347402F0EC
:101637007D09FF121BDF7BFF7A1C79E37D0B7F029D
:10164700121B049000ADE0FB7A009000347402F0A6
:101657007D0CFF121BDF7BFF7A1C79E37D0E7F0277
:10166700121B049000AEE0FB7A009000347402F085
:061677007D0FFF021BDFE6
:071CD400D28AD2AAD2AF228E
:03001300021A4C82
:101A4C00C0E0C0F0C083C082C0D075D000C000C060
:101A5C0001C002C003C004C005C006C0077F147ECD
:101A6C0000121C60D007D006D005D004D003D002E1
:0F1A7C00D001D000D0D0D082D083D0F0D0E032D3
:061CB000C2A58F80D2A73F
:081CB6007F027EEFDEFEDFFC81
:011CBE002203
:0A1CCA00C2A6121CB0C2A7021CB68D
:101B8100E0FCA3E0FDCFCDCFCECCCE1206297C0068
:091B91007D0A120629ED2430FF43
:0A1B9A00D2A6121CB0C2A7021CB6AE
:051BC200EAF0A3EBF0C6
:101BC700AE07EEB40104ED148007EEB40209ED246C
:081BD7003F4480FF121CCA22EA
:101C8A007F38121CCA7F0C121CCA7F06121CCA7F1C
:041C9A0001021CCA5D
:08000300121BC7AF03021B9A98
:0B1B0400900030EBF0A3EAF0A3E9F042
:101B0F00121BC7E4FD900030E0FBA3E0FAA3E0F95D
:101B1F008D827583001205D8FF6006121B9A0D8007
:011B2F00E4D1
:011B30002292
:0C1913007F0AEA24FFFDE434FFFC7E00A4
:0E191F00900035EEF0A3EFF0A3ECF0A3EDF096
:10192D00A3E4F0A304F0E4FBEBFFD3900038E09FB9
:10193D007480F8900037E0648098401E900039E084
:10194D00FEA3E0FF900035E0FCA3E0FD120617902A
:10195D000039EEF0A3EFF00B80CE900039E0FEA33E
:02196D00E0FF99
:01196F002255
:031BDF0090003241
:101BE200121BC2A3E0FAEAD39400400C121913901C
:081BF2000032121B811A80EE83
:011BFA0022C8
:101A0800121BC7C3EA64809480400F7F2B121B9A75
:101A18009000B5EAF0A3EBF080127F2D121B9AC359
:101A2800E49BFEE49A9000B5F0A3CEF09000B4E0F9
:101A3800FAEAD39400400C1219139000B5121B81D6
:031A48001A80EE13
:011A4B002278
:031A8B009000B90F
:101A8E00121BC2A3E0FAEAD39400402D7F10121964
:101A9E00159000B9E0FCA3E0FDCFCDCFCECCCE1299
:101AAE000629EF540FFEC3940AEE50042430800230
:091ABE002437FF121B9A1A80CD97
:011AC70022FC
:031AC8009000BECD
:101ACB00121BC2A3E0FAEAD39400402CEA24FFFDD8
:101ADB00E434FFFC7F027E0012191F9000BEE0FC75
:101AEB00A3E0FDCFCDCFCECCCE120629EF540124EF
:081AFB0030FF121B9A1A80CE85
:011B030022BF
:041847004100C80094
:10112100E4900030F07590FFC2932097167F14FE73
:10113100121C603097FD7F147E00121C60900030FD
:101141007401F02096177F147E00121C603096FD0A
:101151007F147E00121C609000307405F0209517FA
:101161007F147E00121C603095FD7F147E00121CDE
:10117100609000307409F02094177F147E00121CD7
:10118100603094FD7F147E00121C60900030740D5D
:10119100F07590FFC2922097177F147E00121C6099
:1011A1003097FD7F147E00121C609000307402F0B5
:1011B1002096177F147E00121C603096FD7F147EEE
:1011C10000121C609000307406F02095177F147E89
:1011D10000121C603095FD7F147E00121C6090008F
:1011E10030740AF02094177F147E00121C60309432
:1011F100FD7F147E00121C60900030740EF075901B
:10120100FFC2912097177F147E00121C603097FD5A
:101211007F147E00121C609000307403F02096173A
:101221007F147E00121C603096FD7F147E00121C1C
:10123100609000307407F02095177F147E00121C17
:10124100603095FD7F147E00121C60900030740B9D
:10125100F02094177F147E00121C603094FD7F14DF
:101261007E00121C60900030740FF07590FFC290E8
:101271002097177F147E00121C603097FD7F147E2B
:1012810000121C609000307404F02096177F147EC9
:1012910000121C603096FD7F147E00121C609000CD
:1012A100307408F02095177F147E00121C60309571
:1012B100FD7F147E00121C60900030740CF02094AD
:1012C100177F147E00121C603094FD7F147E001283
:0D12D1001C609000307410F0900030E0FFC1
:0112DE0022ED
:101BFB00D2A3C2A37FF7DFFED2A37F20DFFEA2A377
:091C0B00E433FE7FF7DFFEAF06B3
:011C140022AD
:101C9E00C2A37E04DEFEEF24FF92A37E18DEFED2E8
:011CAE00A392
:011CAF002212
:101C4800C2A37F02DFFED2A37F02DFFEA2A3E4339A
:071C5800FE7F18DFFEAF065E
:011C5F002262
:021C1500AD0719
:101C1700E4FC7401A804088002C333D8FC5DFF12FA
:071C27001C9E0CECB408EB5D
:011C2E002293
:101BA400E4FDFC121C48EF600D7401A804088002D7
:0D1BB400C333D8FC4DFD0CECB408E8AF05C0
:011BC1002201
:101B3100CEC2B6C8A3BA25322E34665E4320200039
:101B4100CAB1BCE4A3BA25322E30663A25322E3012
:091B5100663A25322E30660A00C6
:10184B004200600000410062005E00630000000087
:10185B00000000000000000000000000000000007D
:10186B000000000000000000000060280081000064
:10187B00000000000000000000000000000000005D
:10188B00000000000000000000000000000000004D
:06189B0000000000000047
:101C75005389F0438901758AB0758C3CD2A9D2AFDE
:051C8500C28DD28C228B
:03000B000212DFFF
:1012DF00C0E0C0F0C083C082C0D075D000C000C0D5
:1012EF0001C002C003C004C005C006C007758AB0A4
:1012FF00758C3C900061E004F07006900060E00493
:10130F00F0900060E0FEA3E0FF7C007DC81206298C
:10131F00ED4C705C12167D1219C21200167BFF7A0B
:10132F001B79319000C1E0FCA3E0FDA3E0FEA3E038
:10133F00FF90003312075A120D099000ACE0FCE445
:10134F0012035890003312075A9000ADE0FCE412DC
:10135F00035890003712075A9000AEE0FCE41203D6
:10136F005890003B12075A7BFF7A1B7941120D09E7
:10137F00900060E0FEA3E0FF7C017D90120629ED56
:10138F004C7077900060F0A3F09000ACE0FF9000FD
:10139F0062E0FE75F003A42463F582E43400F58364
:1013AF00EFF09000ADE0FFEE75F003A42464F5823A
:1013BF00E43400F583EFF09000AEE0FFEE75F0033C
:1013CF00A42465F582E43400F583EFF09000C1E0CA
:1013DF00FCA3E0FDA3E0FEA3E0FF900062E025E0A8
:1013EF0025E02481F582E43400F58312075A90003A
:1013FF0062E004F0E0B40A02E4F0D007D006D005B2
:10140F00D004D003D002D001D000D0D0D082D0836E
:05141F00D0F0D0E03226
:101C2F0053877F75985053890F438920758BFD75A6
:091C3F008DFDC2ABD28ED29922B8
:03002300021CBFFD
:0B1CBF00309802C298309902C299329E
:101718004E313A3230323130303430323136004E98
:10172800323A3230323033313030313432004D4F8A
:1017380044453A53657474696E672054696D650051
:101748004D4F44453A005265636F7264003A000A8F
:101758000ACEC2B6C8CAB1BCE4BBD8CFD420533174
:1017680031B4A5B7A20A00B5DA25322E3066B4CE58
:10177800CAB1BCE4CEC2B6C8BCC7C2BC0A00CEC29D
:10178800B6C8A3BA25322E34665E43202000CAB1FB
:10179800BCE4A3BA25322E30663A25322E30663A9A
:0917A80025322E30660A0A0A00FF
:0C18A1004100C7004100C5004100C60026
:1007AC0012000E121C8A121C75121C2F1214241209
:1007BC0000167BFF7A1779187D017F01121B047BD1
:1007CC00FF7A1779277D017F02121B0412112190E9
:1007DC0000C8EFF0BF0F069000C7E004F09000C710
:1007EC00E075F00384E5F070569000C8E0B4100B8F
:1007FC009000C5E004F0E49000C8F09000C5E02043
:10080C00E01D121C8A7BFF7A1779187D017F01127B
:10081C001B047BFF7A1779277D017F02121B049042
:10082C0000C5E030E012121C8A1219C21200161216
:10083C00151C12167D1215D77FF47E01121C6090C8
:10084C0000C7E075F00384E5F06401600302096CF5
:10085C009000C8F0121C8A7BFF7A1779367D017FD5
:10086C0001121B041215D71211219000C8EFF0BF12
:10087C00010B9000A9E004F0E49000C8F09000C8CF
:10088C00E0B4050B9000A9E014F0E49000C8F090DF
:10089C0000C8E0B4020B9000AAE004F0E49000C899
:1008AC00F09000C8E0B4060B9000AAE014F0E490BD
:1008BC0000C8F09000C8E0B4030B9000ABE004F06B
:1008CC00E49000C8F09000C8E0B4070B9000ABE0D7
:1008DC0014F0E49000C8F09000C8E0B4040B900051
:1008EC00ACE004F0E49000C8F09000C8E0B4080B51
:1008FC009000ACE014F0E49000C8F09000C8E0B4B4
:10090C00090B9000ADE004F0E49000C8F09000C832
:10091C00E0B40D0B9000ADE014F0E49000C8F09042
:10092C0000C8E0B40A0B9000AEE004F0E49000C8FC
:10093C00F09000C8E0B40E0B9000AEE014F0E49020
:10094C0000C8F01214241215D79000C8E0FF640FF1
:10095C006008EF641060030208739000C7E004F0B5
:10096C009000C7E075F00384E5F0640260030207B1
:10097C00D89000C8F0121C8A7BFF7A1779487D0149
:10098C007F01121B047BFF7A17794E7D087F0112C1
:10099C001B049000C6E075F00A84E5F02401FBE42A
:1009AC0033FA9000347402F07D067F01121BDF9045
:1009BC0000C6E075F00A84E5F075F003A42463F535
:1009CC0082E43400F583E0FB7A009000347402F08A
:1009DC007D01FF121BDF7BFF7A1779557D037F02A8
:1009EC00121B049000C6E075F00A84E5F075F00364
:1009FC00A42464F582E43400F583E0FB7A009000D3
:100A0C00347402F07D04FF121BDF7BFF7A177955DB
:100A1C007D067F02121B049000C6E075F00A84E587
:100A2C00F075F003A42465F582E43400F583E0FB53
:100A3C007A009000347402F07D07FF121BDF121154
:100A4C00219000C8EFF0BF080B9000C6E004F0E462
:100A5C009000C8F09000C8E0B40C0B9000C6E014F5
:100A6C00F0E49000C8F09000C6E075F00A84E5F060
:100A7C002401FBE433FA9000347402F07D067F010C
:100A8C00121BDF9000C6E075F00A84E5F075F003E8
:100A9C00A42463F582E43400F583E0FB7A00900033
:100AAC00347402F07D01FF121BDF7BFF7A1779553E
:100ABC007D037F02121B049000C6E075F00A84E5EA
:100ACC00F075F003A42464F582E43400F583E0FBB4
:100ADC007A009000347402F07D04FF121BDF7BFF60
:100AEC007A1779557D067F02121B049000C6E075BB
:100AFC00F00A84E5F075F003A42465F582E4340073
:100B0C00F583E0FB7A009000347402F07D07FF124D
:100B1C001BDF7B2B7D0B7F021200039000C6E07560
:100B2C00F00A84E5F025E025E02481F582E4340028
:100B3C00F583E0FCA3E0FDA3E0FEA3E0FF12038C31
:100B4C00AB07AA069000347402F07D0CFF121BDF79
:100B5C007B2E7D0E7F021200039000C6E075F00A1A
:100B6C0084E5F025E025E02481F582E43400F5836A
:100B7C00E0FCA3E0FDA3E0FEA3E0FF7B007A40795C
:100B8C001C784612011E12038CE47B107A27F9F8AC
:100B9C001206BA9000347402F07D0FFF121BDF9026
:100BAC0000C8E0640B6003020C897BFF7A1779574D
:100BBC00120D099000C6E075F00A84ACF0E4120343
:100BCC0058E4FBFA7980783F12002D90003312071D
:100BDC005A7BFF7A17796F120D097BFF7A1779868A
:100BEC009000C6E075F00A84E5F025E025E024814C
:100BFC00F582E43400F583E0FCA3E0FDA3E0FEA362
:100C0C00E0FF90003312075A120D099000C6E075F0
:100C1C00F00A84E5F075F003A42463F582E4340053
:100C2C00F583E0FCE412035890003312075A90004D
:100C3C00C6E075F00A84E5F075F003A42464F5822F
:100C4C00E43400F583E0FCE41203589000371207FB
:100C5C005A9000C6E075F00A84E5F075F003A42400
:100C6C0065F582E43400F583E0FCE412035890004F
:100C7C003B12075A7BFF7A177996120D099000C820
:100C8C00E0640F6003020A4AF09000C7E004F0022F
:020C9C0007D877
:100026000203F8E86480F8E933E83360110460F00D
:10003600ED33EC337009E8FCE9FDEAFEEBFF220440
:1000460060DED3EB9FEA9EE99DE8C2E78CF0C2F73B
:1000560095F0400CE8CCF8E9CDF9EACEFAEBCFFB07
:100066001203C385D0F05804700320D5B3E804709A
:10007600075002B2D502040292D5EC0460F7E4CC34
:10008600C0E0C398F8603B94186008400DD0E0FBD0
:100096000203DAE4FBFAC9FC8028E830E406E4C986
:1000A600FBE4CAFCE830E305E4C9CACBFCE8540724
:1000B6006010F8C3E913F9EA13FAEB13FBEC13FC2F
:1000C600D8F130F52FC3E49CFCEF9BFFEE9AFEEDD2
:1000D60099FDD0E0FBEF4E4D4C701222DB0302037C
:1000E600FFEC2CFCEF33FFEE33FEED33FDED30E796
:1000F600EB0203DAEF2BFFEE3AFEED39FDD0E0FB23
:1001060050130BBB0003020402ED13FDEE13FEEFCA
:0801160013FFEC13FC0203DAF5
:10011E00EC4D6011E8497017ED33EC3304600DE4DB
:10012E00FCFFFEFD22E933E8330470F80203F812F7
:10013E0003C358046009E4CC2481500628500902F8
:10014E0004022840030203FFC0E0EB4A7044B9806A
:10015E0006D0E0FB0203EEEF4E701CBD8008EBFFF5
:10016E00EAFEE9FD80EBE98DF0A4FEE5F002020760
:10017E00E9CDF9EAFEEBFFEF89F0A4FCE5F0CE89BC
:10018E00F0A42EFFE435F0CD89F0A42DFEE435F079
:10019E008067EF4E7005BD80D780C3EF8BF0A4ACA7
:1001AE00F0EE8BF0A42CFCE435F0F8EF8AF0A42CE2
:1001BE00E5F038FCE433CB8DF0A42CFCE5F03BF8F5
:1001CE00EE8AF0A42CFCE5F038F8E433CF89F0A4E5
:1001DE002CFCE5F038CF3400CE89F0A42FFFE5F0EB
:1001EE003EFEE433C98DF0A42EFEE5F039CD8AF043
:1001FE00A42FFFE5F03EFEE43DFD33D0E0FB5007BB
:10020E000BBB000F020402EC2CFCEF33FFEE33FEAF
:06021E00ED33FD0203DADE
:10022400020402EC5D046005E8590470030203F85B
:100234001203C3580460F6EC4860F2EC7004FDFE4F
:10024400FF22C860DB2481C85009C39860025006AD
:100254000203FF9850CAF582E9294B4A7005AB8224
:100264000203EE75F0007C1A7880C3EF9BEE9AEDE2
:1002740099400DC3EF9BFFEE9AFEED99FDE842F025
:10028400DC23ACF0D0E0FFD0E0FED0E0FDAB822078
:10029400E7101BEB60BAEC2CFCEF33FFEE33FEED02
:1002A40033FD0203DAE803F830E705C0F075F00027
:1002B400EF2FFFEE33FEED33FD40B830E7C280AAE6
:1002C40074F8CC6480CCC86480C8F58204604FC3E1
:1002D400EB9FF5F0EA9E42F0E99D42F0E89C45F080
:1002E400603C501DE5825FFFE582D313CB5BCBF40A
:1002F4002B5582FB50280ABA002409B90020088033
:100304001DE5825BFBE582D313CF5FCFF4C3132FCC
:100314005582FF50090EBE00050DBD00010CC3EB54
:100324009FF5F0EA9E42F0E99D42F0E89C45F060BA
:0903340007CC4820E701B3EC22DC
:10033D00ED33EC33600A047003BD8004ECB2E7FCCE
:01034D00228D
:10034E0075F020800E75F010800575F0087D007E2A
:10035E00007F003392D530D50312074CEC3340109A
:10036E00EF33FFEE33FEED33FDEC33FCD5F0ED2233
:0E037E00E5F0247EA2D513CC92E7CDCEFF226F
:10038C00EDD2E7CD33EC3392D524814006E4FFFE69
:10039C00FDFC22FCE4CFCECDCC24E0501174FF80C8
:1003AC00EDC3CC13CCCD13CDCE13CECF13CF047065
:0703BC00F030D5DE02074C12
:100C9E00E50D2433F582E43400F583E0050D229052
:100CAE000030301003900033E475F0011207660235
:100CBE0005BF2009E97F2ED2098018EF540F24902A
:100CCE00D43440D4FF300D0BEF24BFB41A005003C0
:100CDE002461FFE50E6002150E0511E51170020587
:100CEE001030100E900030E475F001120766EF021E
:100CFE000605021B5A7403D2108003E4C210F50DD0
:100D0E0090003012077DE4F50EF510F511E50E603A
:100D1E00077F20120CE180F5750FFFC20AC209C2CF
:100D2E000BC20CC20EC20FC211120CADFF700D30F1
:100D3E0010057F00120CF2AF11AE1022B4255FC267
:100D4E00D5C20D120CADFF24D0B40A00501A75F0A6
:100D5E000A780E30D50508B6FF0106C6A426F62081
:100D6E00D5047002D20C80D924CFB41A00EF5004EF
:100D7E00C2E5D20D020FE4D20A80C6D20980C0D2DB
:100D8E000B80BCD2D580BAD20E80B47F20120CE17B
:100D9E00200B077401B50E0040F1120C9EFF120CD1
:100DAE00E1020D1BD211D20F8095120C9EFB120C7C
:100DBE009EFA120C9EF94A4B700679E27A107BFF6E
:100DCE00200B2EE50E602A7E008E827583001205A2
:100DDE00D860060EEE650F70F0C2D5EBC0E0EAC02B
:100DEE00E0E9C0E0EE121045D0E0F9D0E0FAD0E034
:100DFE00FB1205BFFF60AAEBC0E0EAC0E0E9C0E06D
:100E0E00120CE1D0E02401F9D0E03400FAD0E0FB7E
:100E1E00E50F0460DCD50FD98087D20B80A21210AB
:100E2E002760F7E50F70010412040DA90F600DE5A0
:100E3E000F600914F50F1210CFEF60F3EA30E702DE
:100E4E00F404C3995079EAF4250F0430E701E40461
:100E5E00F50F800D12102760C1EA050F250F120441
:100E6E000DEA90005FF030E701E4250F04D50F0482
:100E7E00200E0114121045E4C0E01210CF90005F56
:100E8E00E0601320E70714F0120CC9802204F0D0A2
:100E9E00E014C0E07F00120CC9E50F6007120CC011
:100EAE00150F800B300E03120CC0D0E0020D1BD0BC
:100EBE00E00480C4121027609EE50F0412040D900A
:100ECE00005FEAF0E50F200E026001042404121008
:010EDE0045CE
:100EDF0074FF04C0E01210CF120CC9E50F200E02F0
:100EEF006003120CC0D0E0B50FE87F45120CD39011
:100EFF00005FE07F2B30E7047F2DF404C0E0120C7D
:100F0F00E1D0E075F00A84C0F0120CCAD0E0120CE8
:100F1F00CA020D1B791080027908C20FC211800816
:100F2F00D2D5790A8004790AC2D5E50F047002F58B
:100F3F000FE4FAFDFEFF120C9EFC7B08200A131231
:100F4F000C9EFD7B1030090A120C9EFE120C9EFFA8
:100F5F007B20EC3382D592D55013C3E43009069F22
:100F6F00FFE49EFEE4200A039DFDE49CFCE4CBF825
:100F7F00C20AEC700CCFCECDCCE824F8F870F38019
:100F8F0017C3EF33FFEE33FEED33FDEC33FCEB33E2
:100F9F00FB994002FB0FD8E9EB300A05F8D0E0C40B
:100FAF0048B20AC0E00AEC4D4E4F78207B0070C269
:100FBF00EAB50F0040BCC0E0121047D0F0D0E020DF
:100FCF000A04C4C0E0C4B20AC0F0120CCAD0F0D5F3
:100FDF00F0EB020D1B1207860DB8530F23580D8926
:100FEF004C0D85420F274F0F2F440F2F490D9E4356
:100FFF000F35550E62460EC2450E2C471102500D8D
:10100F008D2D0D912E0DB42B0D95230DB22010EBC0
:10101F002A0D4D4800000DACE50FB4FF03750F0608
:10102F00120C9EFC120C9EFD120C9EFE120C9EFFCB
:10103F0090005802044A790AA2D5200C14300E09E8
:10104F00B910020404B9080104A2D5200F025001FF
:10105F0004200B68920BB50E005034C0E07F203097
:10106F000C197F30A20B720F720E500F12109EC20E
:10107F000BC20FC20EC2117F30800F300E03E9C0BA
:10108F00E0120CE1300E03D0E0F9D0E0B50ECC3019
:10109F000E177F30B9100C120CE17F58300D077FFF
:1010AF00788003B90803120CE1300B057F2D020C79
:1010BF00E17F202011F87F2B200FF322920B80CF9E
:1010CF007F00B40700500B2458F582E43400F583F9
:1010DF00E0FF22286E756C6C2900D20A120C9E302C
:1010EF000AF8C20A780E30D50108F6020D4D2D50C0
:1010FF00434958120C9E2403B405004001E490109C
:10110F00FD93120CD2743A120CD2D20C750E04024B
:02111F000F239C
:1003C300E9D2E7C933E833F892D5EDD2E7CD33EC80
:0703D30033FC5002B2D522F9
:1003DA00EC30E7100FBF000C0EBE00080DBD000484
:1003EA000BEB6014A2D5EB13FCED92E7FD2274FF30
:1003FA00FCFDFEFF22E480F8A2D574FF13FC7D8089
:03040A00E480EF9C
:10040D00F920E73624F950037907E4F42402FBE5DB
:10041D0082158270021583DBF6E024FB501BE96028
:10042D0014E4F0E582158270021583E004F0B40A3D
:0D043D0008E4F0D9EE7401F00A22C2D522C5
:10044A00ED33EC3392D5FA602AB4FF33EDC2E77B81
:10045A00FF60067A04796FE4227A04797820D50459
:10046A007A047973224E614E002B494E46002D497B
:10047A004E4600E47A08F0A3DAFC7B00740722C037
:10048A0083C082ECC0E0EDC0E0EEC0E0EFC0E0EA7D
:10049A0075F010A4CAABF075F04DA42BFBE435F04F
:1004AA00FCEA2410FAEB34C5FBEC34D9FCEDC2E7C4
:1004BA00FF75F056A4F42411C5F0F434C58FF0A4E6
:1004CA002AE5F03BE43CF020E71412057FD0E0FF78
:1004DA00D0E0FED0E0FDD0E0FC1202278014F40444
:1004EA0012057FD0E0FFD0E0FED0E0FDD0E0FC12A4
:1004FA00011ED082D083E0FAEDD2E7CD33EC33246B
:10050A0082FBE4C3CF33CFCE33CECD33CD33DBF34F
:10051A007B0775F00A846004F0A31B0AE5F0F0A3D8
:10052A008FF0740AA4FFACF08EF0740AA42CFEAC0F
:10053A00F050010C8DF0740AA42CFDE435F0F0A300
:05054A00DBDE74072256
:10054F003F8000004120000042C80000447A0000B4
:10055F00461C400047C35000497424004B18968036
:10056F004CBEBC205A0E1BCA6753C21C749DC5AE2D
:10057F00FB60065407601C23231205ADEB54386053
:10058F00091205991205A812011EECF8EDF9EEFA01
:10059F00EFCB22EB1205A880F1543803241C9005F1
:1005AF004FFE93FC0EEE93FD0EEE930ECE93FF22B5
:030000000217B133
:0C17B100787FE4F6D8FD7581220217F85D
:1005BF00BB010689828A83E0225002E722BBFE023A
:0905CF00E32289828A83E493226D
:1005D800BB010CE58229F582E5833AF583E02250D8
:1005E80006E92582F8E622BBFE06E92582F8E22222
:0D05F800E58229F582E5833AF583E493223C
:10060500BB010689828A83F0225002F722BBFE01D4
:02061500F322CE
:10061700EF8DF0A4A8F0CF8CF0A428CE8DF0A42EF7
:02062700FE22B1
:10062900BC000BBE0029EF8DF084FFADF022E4CCB5
:10063900F875F008EF2FFFEE33FEEC33FCEE9DEC7E
:10064900984005FCEE9DFE0FD5F0E9E4CEFD22EDC4
:10065900F8F5F0EE8420D21CFEADF075F008EF2F0E
:10066900FFED33FD4007985006D5F0F222C398FDFF
:050679000FD5F0EA229C
:10067E0075F008758200EF2FFFEE33FECD33CDCC33
:10068E0033CCC58233C5829BED9AEC99E5829840B6
:10069E000CF582EE9BFEED9AFDEC99FC0FD5F0D693
:1006AE00E4CEFBE4CDFAE4CCF9A88222B800C1B9BD
:1006BE000059BA002DEC8BF084CFCECDFCE5F0CBFB
:1006CE00F97818EF2FFFEE33FEED33FDEC33FCEB34
:1006DE0033FB10D703994004EB99FB0FD8E5E4F9EF
:1006EE00FA227818EF2FFFEE33FEED33FDEC33FCDC
:1006FE00C933C910D7059BE99A4007EC9BFCE99AD0
:10070E00F90FD8E0E4C9FAE4CCFB2275F010EF2F14
:10071E00FFEE33FEED33FDCC33CCC833C810D70714
:10072E009BEC9AE899400AED9BFDEC9AFCE899F84F
:0E073E000FD5F0DAE4CDFBE4CCFAE4C8F922E2
:0E074C00C3E49FFFE49EFEE49DFDE49CFC22BE
:0C075A00ECF0A3EDF0A3EEF0A3EFF02212
:10076600F8E0FBA3A3E0F925F0F0E582158270021C
:070776001583E0FA38F022C0
:09077D00EBF0A3EAF0A3E9F0227D
:10078600D083D082F8E4937012740193700DA3A302
:1007960093F8740193F5828883E473740293686016
:0607A600EFA3A3A380DF16
:101B5A00EFB40A07740D121B65740A309811A8991C
:101B6A00B8130CC2983098FDA899C298B811F630EB
:071B7A0099FDC299F59922C3
:1017BD000207ACE493A3F8E493A34003F68001F28F
:1017CD0008DFF48029E493A3F85407240CC8C3332D
:1017DD00C4540F4420C8834004F456800146F6DFFC
:1017ED00E4800B010204081020408090183DE47E37
:1017FD00019360BCA3FF543F30E509541FFEE493F1
:10180D00A360010ECF54C025E060A840B8E493A3B7
:10181D00FAE493A3F8E493A3C8C582C8CAC583CAE2
:10182D00F0A3C8C582C8CAC583CADFE9DEE780BE9A
:0118AD00003A
:00000001FF
